{
  "_format": "hh-sol-artifact-1",
  "contractName": "Famtree",
  "sourceName": "contracts/Famtree.sol",
  "abi": [
    {
      "inputs": [
        {
          "internalType": "string",
          "name": "_name",
          "type": "string"
        },
        {
          "internalType": "string",
          "name": "_femaleName",
          "type": "string"
        },
        {
          "internalType": "uint256",
          "name": "gen",
          "type": "uint256"
        },
        {
          "internalType": "string",
          "name": "_dob",
          "type": "string"
        },
        {
          "internalType": "uint256",
          "name": "_wealth",
          "type": "uint256"
        },
        {
          "internalType": "string",
          "name": "_fatherName",
          "type": "string"
        }
      ],
      "name": "createPerson",
      "outputs": [],
      "stateMutability": "nonpayable",
      "type": "function"
    },
    {
      "inputs": [],
      "name": "getData",
      "outputs": [
        {
          "components": [
            {
              "internalType": "string",
              "name": "fatherName",
              "type": "string"
            },
            {
              "internalType": "string",
              "name": "maleName",
              "type": "string"
            },
            {
              "internalType": "string",
              "name": "femaleName",
              "type": "string"
            },
            {
              "internalType": "string",
              "name": "dob",
              "type": "string"
            },
            {
              "internalType": "uint256",
              "name": "recordDate",
              "type": "uint256"
            },
            {
              "internalType": "uint256",
              "name": "totalWealth",
              "type": "uint256"
            },
            {
              "internalType": "uint256",
              "name": "genNo",
              "type": "uint256"
            }
          ],
          "internalType": "struct Famtree.person[]",
          "name": "",
          "type": "tuple[]"
        }
      ],
      "stateMutability": "view",
      "type": "function"
    },
    {
      "inputs": [
        {
          "internalType": "uint256",
          "name": "",
          "type": "uint256"
        }
      ],
      "name": "headOfFamily",
      "outputs": [
        {
          "internalType": "address",
          "name": "",
          "type": "address"
        }
      ],
      "stateMutability": "view",
      "type": "function"
    }
  ],
  "bytecode": "0x608060405234801561001057600080fd5b50610dba806100206000396000f3fe608060405234801561001057600080fd5b50600436106100415760003560e01c80633bc5de3014610046578063954e9698146100645780639714b99414610094575b600080fd5b61004e6100b0565b60405161005b9190610789565b60405180910390f35b61007e600480360381019061007991906107eb565b6103b1565b60405161008b9190610859565b60405180910390f35b6100ae60048036038101906100a991906109a9565b6103f0565b005b60606000803373ffffffffffffffffffffffffffffffffffffffff1673ffffffffffffffffffffffffffffffffffffffff168152602001908152602001600020805480602002602001604051908101604052809291908181526020016000905b828210156103a857838290600052602060002090600702016040518060e001604052908160008201805461014390610ad5565b80601f016020809104026020016040519081016040528092919081815260200182805461016f90610ad5565b80156101bc5780601f10610191576101008083540402835291602001916101bc565b820191906000526020600020905b81548152906001019060200180831161019f57829003601f168201915b505050505081526020016001820180546101d590610ad5565b80601f016020809104026020016040519081016040528092919081815260200182805461020190610ad5565b801561024e5780601f106102235761010080835404028352916020019161024e565b820191906000526020600020905b81548152906001019060200180831161023157829003601f168201915b5050505050815260200160028201805461026790610ad5565b80601f016020809104026020016040519081016040528092919081815260200182805461029390610ad5565b80156102e05780601f106102b5576101008083540402835291602001916102e0565b820191906000526020600020905b8154815290600101906020018083116102c357829003601f168201915b505050505081526020016003820180546102f990610ad5565b80601f016020809104026020016040519081016040528092919081815260200182805461032590610ad5565b80156103725780601f1061034757610100808354040283529160200191610372565b820191906000526020600020905b81548152906001019060200180831161035557829003601f168201915b50505050508152602001600482015481526020016005820154815260200160068201548152505081526020019060010190610110565b50505050905090565b600181815481106103c157600080fd5b906000526020600020016000915054906101000a900473ffffffffffffffffffffffffffffffffffffffff1681565b6000803373ffffffffffffffffffffffffffffffffffffffff1673ffffffffffffffffffffffffffffffffffffffff1681526020019081526020016000206040518060e00160405280838152602001888152602001878152602001858152602001428152602001848152602001868152509080600181540180825580915050600190039060005260206000209060070201600090919091909150600082015181600001908161049f9190610cb2565b5060208201518160010190816104b59190610cb2565b5060408201518160020190816104cb9190610cb2565b5060608201518160030190816104e19190610cb2565b506080820151816004015560a0820151816005015560c0820151816006015550506001339080600181540180825580915050600190039060005260206000200160009091909190916101000a81548173ffffffffffffffffffffffffffffffffffffffff021916908373ffffffffffffffffffffffffffffffffffffffff160217905550505050505050565b600081519050919050565b600082825260208201905092915050565b6000819050602082019050919050565b600081519050919050565b600082825260208201905092915050565b60005b838110156105d35780820151818401526020810190506105b8565b60008484015250505050565b6000601f19601f8301169050919050565b60006105fb82610599565b61060581856105a4565b93506106158185602086016105b5565b61061e816105df565b840191505092915050565b6000819050919050565b61063c81610629565b82525050565b600060e083016000830151848203600086015261065f82826105f0565b9150506020830151848203602086015261067982826105f0565b9150506040830151848203604086015261069382826105f0565b915050606083015184820360608601526106ad82826105f0565b91505060808301516106c26080860182610633565b5060a08301516106d560a0860182610633565b5060c08301516106e860c0860182610633565b508091505092915050565b60006106ff8383610642565b905092915050565b6000602082019050919050565b600061071f8261056d565b6107298185610578565b93508360208202850161073b85610589565b8060005b85811015610777578484038952815161075885826106f3565b945061076383610707565b925060208a0199505060018101905061073f565b50829750879550505050505092915050565b600060208201905081810360008301526107a38184610714565b905092915050565b6000604051905090565b600080fd5b600080fd5b6107c881610629565b81146107d357600080fd5b50565b6000813590506107e5816107bf565b92915050565b600060208284031215610801576108006107b5565b5b600061080f848285016107d6565b91505092915050565b600073ffffffffffffffffffffffffffffffffffffffff82169050919050565b600061084382610818565b9050919050565b61085381610838565b82525050565b600060208201905061086e600083018461084a565b92915050565b600080fd5b600080fd5b7f4e487b7100000000000000000000000000000000000000000000000000000000600052604160045260246000fd5b6108b6826105df565b810181811067ffffffffffffffff821117156108d5576108d461087e565b5b80604052505050565b60006108e86107ab565b90506108f482826108ad565b919050565b600067ffffffffffffffff8211156109145761091361087e565b5b61091d826105df565b9050602081019050919050565b82818337600083830152505050565b600061094c610947846108f9565b6108de565b90508281526020810184848401111561096857610967610879565b5b61097384828561092a565b509392505050565b600082601f8301126109905761098f610874565b5b81356109a0848260208601610939565b91505092915050565b60008060008060008060c087890312156109c6576109c56107b5565b5b600087013567ffffffffffffffff8111156109e4576109e36107ba565b5b6109f089828a0161097b565b965050602087013567ffffffffffffffff811115610a1157610a106107ba565b5b610a1d89828a0161097b565b9550506040610a2e89828a016107d6565b945050606087013567ffffffffffffffff811115610a4f57610a4e6107ba565b5b610a5b89828a0161097b565b9350506080610a6c89828a016107d6565b92505060a087013567ffffffffffffffff811115610a8d57610a8c6107ba565b5b610a9989828a0161097b565b9150509295509295509295565b7f4e487b7100000000000000000000000000000000000000000000000000000000600052602260045260246000fd5b60006002820490506001821680610aed57607f821691505b602082108103610b0057610aff610aa6565b5b50919050565b60008190508160005260206000209050919050565b60006020601f8301049050919050565b600082821b905092915050565b600060088302610b687fffffffffffffffffffffffffffffffffffffffffffffffffffffffffffffffff82610b2b565b610b728683610b2b565b95508019841693508086168417925050509392505050565b6000819050919050565b6000610baf610baa610ba584610629565b610b8a565b610629565b9050919050565b6000819050919050565b610bc983610b94565b610bdd610bd582610bb6565b848454610b38565b825550505050565b600090565b610bf2610be5565b610bfd818484610bc0565b505050565b5b81811015610c2157610c16600082610bea565b600181019050610c03565b5050565b601f821115610c6657610c3781610b06565b610c4084610b1b565b81016020851015610c4f578190505b610c63610c5b85610b1b565b830182610c02565b50505b505050565b600082821c905092915050565b6000610c8960001984600802610c6b565b1980831691505092915050565b6000610ca28383610c78565b9150826002028217905092915050565b610cbb82610599565b67ffffffffffffffff811115610cd457610cd361087e565b5b610cde8254610ad5565b610ce9828285610c25565b600060209050601f831160018114610d1c5760008415610d0a578287015190505b610d148582610c96565b865550610d7c565b601f198416610d2a86610b06565b60005b82811015610d5257848901518255600182019150602085019450602081019050610d2d565b86831015610d6f5784890151610d6b601f891682610c78565b8355505b6001600288020188555050505b50505050505056fea26469706673582212207a4c26b81c26e512614d5562f94752da760a2c26a3e5ab780258f1ef5029ac3e64736f6c63430008110033",
  "linkReferences": {},
  "deployedLinkReferences": {}
}